:100000000C9434000C9451000C9451000C94510049
:100010000C9451000C9451000C9451000C9451001C
:100020000C9451000C9451000C9451000C9451000C
:100030000C9451000C9451000C9451000C945100FC
:100040000C9451000C9451000C9409020C94510032
:100050000C9451000C94C3010C9451000C94510069
:100060000C9451000C94510011241FBECFEFD8E026
:10007000DEBFCDBF11E0A0E0B1E0ECE3FEE002C0E6
:1000800005900D92A632B107D9F721E0A6E2B1E0C2
:1000900001C01D92A033B207E1F70E9471010C94D8
:1000A0001C070C940000ECE7F0E010829081877050
:1000B000982B90649083EAE7F0E0108280818F684B
:1000C000808380818064808308959BB1282F30E0F5
:1000D000220F331F220F331F9370292B2BB995B199
:1000E0009C7F8295869586958370892B85B9089526
:1000F00095B1977F95B90E94650085B1846085B9F7
:100100008FE99FE00197F1F700C0000085B18B7F78
:1001100085B98FE99FE00197F1F700C000000895CD
:1001200085B1877F85B985B18B7F85B92FEF89EF41
:1001300090E0215080409040E1F700C0000080E353
:100140000E9478008FE19EE40197F1F700C0000063
:1001500080E30E9478008FE19EE40197F1F700C0F0
:10016000000080E30E9478008FE39CE90197F1F79B
:1001700000C0000088E30E9478008CE00E947800B4
:1001800081E00E94780086E00E9478000895CF9375
:10019000DF93C82FD62F811104C080E8860F0E94FC
:1001A0007800C13021F480EC8D0F0E947800DF913F
:1001B000CF91089581E00E947800089595B19860EC
:1001C00095B90E94650085B1846085B98FE99FE08B
:1001D0000197F1F700C0000085B18B7F85B98FE9E9
:1001E0009FE00197F1F700C0000008950F931F935F
:1001F000CF93DF938C01C0E0D0E003C00E94DE000B
:100200002196F801EC0FFD1F80818111F7CFDF915E
:10021000CF911F910F910895F8948FEF8AB91BB871
:100220008FE084B915B80E9490000E94DA00809196
:100230002B010E9453000E941C0278940895CF92D3
:10024000DF92EF92FF9260912E0170912F0180E07A
:1002500090E00E94370320E030E040EA50E40E9442
:10026000C50320E030EC4FE754E40E9496026B0196
:100270007C010E9408036093270170E080E090E019
:100280000E9439039B01AC01C701B6010E942902FB
:1002900020E030E048EC52E40E94C5030E940803CD
:1002A00060932601FF90EF90DF90CF9008958091AA
:1002B00029018823A9F01092290180912A018B320B
:1002C00031F4809128018F5F8093280108958091F7
:1002D0002A018D3229F480912801815080932801D0
:1002E0000895CF93DF93CDB7DEB7A0970FB6F894FC
:1002F000DEBF0FBECDBF0E940C0160E080E00E9417
:10030000C70080E1E0E0F1E08E010F5F1F4FD801F0
:1003100001900D928A95E1F7C8010E94F60060E015
:1003200081E00E94C7000E941F010E945701209196
:10033000280180912C0190912D011F922F939F9362
:100340008F93809126011F928F93809127011F9296
:100350008F9380E191E09F938F931F930F930E945F
:100360003204C8010E94F6002FEF81EE94E0215084
:1003700080409040E1F700C000000FB6F894DEBF67
:100380000FBECDBFBACF1F920F920FB60F9211249E
:100390008F939F93EF93FF9380912B01882319F004
:1003A000813051F011C08091780090917900909344
:1003B0002F0180932E0108C08091780090917900E0
:1003C00090932D0180932C0180912B0190E0019658
:1003D00081709078992324F401978E6F9F6F019616
:1003E00080932B01ECE7F0E0908180912B01907FCE
:1003F0008370892B8083EAE7F0E0808180648083CA
:10040000FF91EF919F918F910F900FBE0F901F90D2
:1004100018951F920F920FB60F9211248F9380910F
:10042000C60080932A0181E0809329018F910F906B
:100430000FBE0F901F90189587E690E09093C5002F
:100440008093C40088E98093C10086E08093C20055
:1004500008955058BB27AA270E9441020C948B0391
:100460000E947D0338F00E94840320F039F49F3FFE
:1004700019F426F40C947A030EF4E095E7FB0C943F
:100480007403E92F0E949C0358F3BA17620773079D
:100490008407950720F079F4A6F50C94BE030EF4BA
:1004A000E0950B2EBA2FA02D0B01B90190010C0184
:1004B000CA01A0011124FF27591B99F0593F50F49C
:1004C000503E68F11A16F040A22F232F342F4427F4
:1004D000585FF3CF469537952795A795F0405395EC
:1004E000C9F77EF41F16BA0B620B730B840BBAF0BC
:1004F0009150A1F0FF0FBB1F661F771F881FC2F727
:100500000EC0BA0F621F731F841F48F4879577953A
:100510006795B795F7959E3F08F0B0CF9395880FF4
:1005200008F09927EE0F9795879508950E94AA02E3
:100530000C948B030E94840358F00E947D0340F0CA
:1005400029F45F3F29F00C94740351110C94BF03FC
:100550000C947A030E949C0368F39923B1F355230A
:1005600091F3951B550BBB27AA27621773078407C6
:1005700038F09F5F5F4F220F331F441FAA1FA9F35C
:1005800035D00E2E3AF0E0E832D091505040E6954A
:10059000001CCAF72BD0FE2F29D0660F771F881FAB
:1005A000BB1F261737074807AB07B0E809F0BB0B9E
:1005B000802DBF01FF2793585F4F3AF09E3F5105B2
:1005C00078F00C9474030C94BF035F3FE4F3983EFF
:1005D000D4F3869577956795B795F7959F5FC9F79B
:1005E000880F911D9695879597F90895E1E0660F1C
:1005F000771F881FBB1F621773078407BA0720F095
:10060000621B730B840BBA0BEE1F88F7E0950895FD
:100610000E94A40388F09F5798F0B92F9927B751EB
:10062000B0F0E1F0660F771F881F991F1AF0BA9596
:10063000C9F714C0B13091F00E94BE03B1E0089533
:100640000C94BE03672F782F8827B85F39F0B93F25
:10065000CCF3869577956795B395D9F73EF4909549
:100660008095709561957F4F8F4F9F4F0895E894C7
:1006700009C097FB3EF490958095709561957F4FEA
:100680008F4F9F4F9923A9F0F92F96E9BB27939598
:10069000F695879577956795B795F111F8CFFAF4A8
:1006A000BB0F11F460FF1BC06F5F7F4F8F4F9F4FD9
:1006B00016C0882311F096E911C0772321F09EE837
:1006C000872F762F05C0662371F096E8862F70E09D
:1006D00060E02AF09A95660F771F881FDAF7880F77
:1006E0009695879597F9089597F99F6780E870E048
:1006F00060E008959FEF80EC089500240A94161698
:10070000170618060906089500240A9412161306FF
:10071000140605060895092E0394000C11F488238D
:1007200052F0BB0F40F4BF2B11F460FF04C06F5FA9
:100730007F4F8F4F9F4F089557FD9058440F551F7F
:1007400059F05F3F71F04795880F97FB991F61F053
:100750009F3F79F087950895121613061406551FCA
:10076000F2CF4695F1DF08C0161617061806991F36
:10077000F1CF86957105610508940895E894BB272B
:1007800066277727CB0197F908950E94D8030C9428
:100790008B030E947D0338F00E94840320F0952390
:1007A00011F00C9474030C947A0311240C94BF037D
:1007B0000E949C0370F3959FC1F3950F50E0551F65
:1007C000629FF001729FBB27F00DB11D639FAA27A6
:1007D000F00DB11DAA1F649F6627B00DA11D661FF5
:1007E000829F2227B00DA11D621F739FB00DA11D16
:1007F000621F839FA00D611D221F749F3327A00DD0
:10080000611D231F849F600D211D822F762F6A2F6B
:1008100011249F5750409AF0F1F088234AF0EE0FD0
:10082000FF1FBB1F661F771F881F91505040A9F7FD
:100830009E3F510580F00C9474030C94BF035F3FFE
:10084000E4F3983ED4F3869577956795B795F79539
:10085000E7959F5FC1F7FE2B880F911D96958795B1
:1008600097F90895AEE0B0E0E8E3F4E00C94F30605
:100870000D891E8986E08C831A8309838FEF9FE799
:100880009E838D83AE01475E5F4F6F89788DCE0169
:1008900001960E945404EF81F885E00FF11F108249
:1008A0002E96E4E00C940F07ABE0B0E0EAE5F4E04C
:1008B0000C94E5066C017B018A01FC01178216820B
:1008C000838181FFCCC1CE0101963C01F601938169
:1008D000F70193FD859193FF81917F01882309F4AE
:1008E000BAC1853239F493FD859193FF81917F01DF
:1008F000853229F4B60190E00E944B06E7CF912C97
:10090000212C312CFFE1F315D8F08B3279F038F43B
:10091000803279F08332A1F4232D20611DC08D3205
:1009200061F0803369F4232D216016C0832D82602D
:10093000382EE32DE4603E2E2AC0F32DF8601DC052
:1009400037FC2DC020ED280F2A3040F08E32B9F44C
:1009500036FC81C1232D2064322E19C036FE06C01C
:100960008AE0989E200D1124922E11C0EAE02E9E5E
:10097000200D1124222EF32DF0623F2E08C08C365C
:1009800021F4832D8068382E02C0883641F4F701A7
:1009900093FD859193FF81917F018111B3CF982FB2
:1009A0009F7D9554933028F40C5F1F4F9FE39983EC
:1009B0000DC0833631F0833771F0833509F059C0AB
:1009C00021C0F801808189830E5F1F4F88248394A2
:1009D000912C530113C02801F2E04F0E511CF80175
:1009E000A080B18036FE03C0692D70E002C06FEFB9
:1009F0007FEFC5010E9440064C018201F32DFF7775
:100A00003F2E16C0280122E0420E511CF801A080A2
:100A1000B18036FE03C0692D70E002C06FEF7FEF3A
:100A2000C5010E9435064C01F32DF0683F2E82016E
:100A300033FC1BC0822D90E088169906B0F4B601F5
:100A400080E290E00E944B062A94F4CFF50137FC37
:100A5000859137FE81915F01B60190E00E944B06BF
:100A600021102A9421E0821A91088114910471F7CF
:100A7000E8C0843611F0893641F5F80137FE07C029
:100A800060817181828193810C5F1F4F08C06081FA
:100A90007181072E000C880B990B0E5F1F4FF32DF1
:100AA000FF763F2E97FF09C09095809570956195D0
:100AB0007F4F8F4F9F4FF0683F2E2AE030E0A30119
:100AC0000E948706882E861845C0853731F4232D6D
:100AD0002F7EB22E2AE030E025C0932D997FB92ECB
:100AE0008F36C1F018F4883579F0B5C0803719F029
:100AF000883721F0B0C0E92FE061BE2EB4FE0DC0F2
:100B0000FB2DF460BF2E09C034FE0AC0292F2660D9
:100B1000B22E06C028E030E005C020E130E002C07F
:100B200020E132E0F801B7FE07C060817181828167
:100B300093810C5F1F4F06C06081718180E090E05F
:100B40000E5F1F4FA3010E948706882E8618FB2D7B
:100B5000FF773F2E36FE0DC0232D2E7FA22E891447
:100B600058F434FE0BC032FC09C0832D8E7EA82EB3
:100B700005C0B82CA32C03C0B82C01C0B92CA4FE0E
:100B80000FC0FE01E80DF11D8081803321F49A2D04
:100B9000997EA92E09C0A2FE06C0B394B39404C0E6
:100BA0008A2D867809F0B394A3FC11C0A0FE06C07C
:100BB000B21488F4280C922C9B180EC0B21460F466
:100BC000B60180E290E00E944B06B394F7CFB214D6
:100BD00018F42B1802C0982C212CA4FE10C0B601CA
:100BE00080E390E00E944B06A2FE17C0A1FC03C068
:100BF00088E790E002C088E590E0B6010CC08A2D3D
:100C0000867859F0A1FE02C08BE201C080E2A7FC09
:100C10008DE2B60190E00E944B06891438F4B601CB
:100C200080E390E00E944B069A94F7CF8A94F301F8
:100C3000E80DF11D8081B60190E00E944B06811005
:100C4000F5CF222009F442CEB60180E290E00E9466
:100C50004B062A94F6CFF6018681978102C08FEF6A
:100C60009FEF2B96E2E10C940107FC010590615087
:100C700070400110D8F7809590958E0F9F1F0895B2
:100C8000FC016150704001900110D8F7809590955B
:100C90008E0F9F1F08950F931F93CF93DF93FB0138
:100CA000238121FD03C08FEF9FEF2CC022FF16C0D0
:100CB00046815781248135814217530744F4A0812E
:100CC000B1819D012F5F3F4F318320838C9326811B
:100CD00037812F5F3F4F3783268314C08B01EC0190
:100CE000FB010084F185E02D0995892BE1F6D801FF
:100CF00016968D919C911797019617969C938E93BB
:100D00001697CE01DF91CF911F910F910895FA01AF
:100D1000AA27283051F1203181F1E8946F936E7F3A
:100D20006E5F7F4F8F4F9F4FAF4FB1E03ED0B4E02B
:100D30003CD0670F781F891F9A1FA11D680F791F6C
:100D40008A1F911DA11D6A0F711D811D911DA11D7D
:100D500020D009F468943F912AE0269F112430198D
:100D6000305D3193DEF6CF010895462F4770405D28
:100D70004193B3E00FD0C9F7F6CF462F4F70405DD7
:100D80004A3318F0495D31FD4052419302D0A9F732
:100D9000EACFB4E0A6959795879577956795BA952C
:100DA000C9F700976105710508959B01AC010A2EF2
:100DB00006945795479537952795BA95C9F7620FC9
:100DC000731F841F951FA01D08952F923F924F926D
:100DD0005F926F927F928F929F92AF92BF92CF92CB
:100DE000DF92EF92FF920F931F93CF93DF93CDB7D4
:100DF000DEB7CA1BDB0B0FB6F894DEBF0FBECDBF4C
:100E000009942A88398848885F846E847D848C841C
:100E10009B84AA84B984C884DF80EE80FD800C8125
:100E20001B81AA81B981CE0FD11D0FB6F894DEBF08
:0C0E30000FBECDBFED010895F894FFCF78
:100E3C0020533120202020205332202020533300F7
:100E4C0025642E2530326456202025303464202031
:060E5C00253033640000A4
:00000001FF
