S01800004544322D4C61626F7261746F72696F322E7372656374
S11300000C9434000C9449000C9449000C9449005D
S11300100C9449000C9449000C9449000C94490038
S11300200C9449000C9449000C9449000C94490028
S11300300C9449000C9449000C9449000C94490018
S11300400C9449000C9449000C9449000C94490008
S11300500C9449000C9449000C9449000C944900F8
S11300600C9449000C94490011241FBECFEFD8E032
S1130070DEBFCDBF11E0A0E0B1E0EAE2F2E002C0F1
S113008005900D92A630B107D9F70E94FF000C9499
S113009013010C9400009BB1282F30E0220F331F72
S11300A0220F331F9370292B2BB995B19C7F829516
S11300B0869586958370892B85B9089595B1977F28
S11300C095B90E944B0085B1846085B98FE99FE0A2
S11300D00197F1F700C0000085B18B7F85B98FE9E6
S11300E09FE00197F1F700C00000089585B1877F74
S11300F085B985B18B7F85B92FEF89EF90E02150C9
S113010080409040E1F700C0000080E30E945E0060
S11301108FE19EE40197F1F700C0000080E30E94A4
S11301205E008FE19EE40197F1F700C0000080E3D8
S11301300E945E008FE39CE90197F1F700C0000084
S113014088E30E945E008CE00E945E0081E00E94D1
S11301505E0086E00E945E000895CF93DF93C82F6F
S1130160D62F811104C080E8860F0E945E00C13042
S113017021F480EC8D0F0E945E00DF91CF910895F1
S113018081E00E945E00089595B1986095B90E943F
S11301904B0085B1846085B98FE99FE00197F1F741
S11301A000C0000085B18B7F85B98FE99FE001977E
S11301B0F1F700C0000008950F931F93CF93DF93CE
S11301C08C01C0E0D0E003C00E94C4002196F80175
S11301D0EC0FFD1F80818111F7CFDF91CF911F912B
S11301E00F910895F8948FEF8AB91BB88FE084B902
S11301F015B80E9476000E94C000789408950E9469
S1130200F20060E080E00E94AD0080E091E00E9496
S1130210DC002FEF81EE94E0215080409040E1F724
S10D022000C00000F6CFF894FFCFF1
S109022A484F4C410000A6
S9030000FC
